{
  "contractName": "Gerenciavel",
  "abi": [
    {
      "inputs": [],
      "payable": false,
      "stateMutability": "nonpayable",
      "type": "constructor"
    },
    {
      "constant": false,
      "inputs": [
        {
          "name": "novoGerente",
          "type": "address"
        }
      ],
      "name": "mudarGerente",
      "outputs": [],
      "payable": false,
      "stateMutability": "nonpayable",
      "type": "function"
    }
  ],
  "bytecode": "0x608060405234801561001057600080fd5b50336000806101000a81548173ffffffffffffffffffffffffffffffffffffffff021916908373ffffffffffffffffffffffffffffffffffffffff1602179055506101c0806100606000396000f3fe608060405234801561001057600080fd5b506004361061002b5760003560e01c806324717d9114610030575b600080fd5b6100726004803603602081101561004657600080fd5b81019080803573ffffffffffffffffffffffffffffffffffffffff169060200190929190505050610074565b005b6000809054906101000a900473ffffffffffffffffffffffffffffffffffffffff1673ffffffffffffffffffffffffffffffffffffffff163373ffffffffffffffffffffffffffffffffffffffff1614610119576040517f08c379a000000000000000000000000000000000000000000000000000000000815260040180806020018281038252603881526020018061015d6038913960400191505060405180910390fd5b806000806101000a81548173ffffffffffffffffffffffffffffffffffffffff021916908373ffffffffffffffffffffffffffffffffffffffff1602179055505056fe536f6d656e7465206f20676572656e7465206465737461206441707020706f64652065786563757461722065737461206f7065726163616fa165627a7a723058208df9a7ab1345a56cc44ee441e1f0bd15d5de4f215697563af2b5d390d084bbe70029",
  "source": "pragma solidity 0.5.7;\n\ncontract Gerenciavel {\n    /** atual gerente da dApp */\n    address private gerente;\n\n    constructor() public {\n        gerente = msg.sender;\n    }\n\n    modifier somenteGerente {\n        require(\n            msg.sender == gerente,\n            \"Somente o gerente desta dApp pode executar esta operacao\"\n        );\n        _;\n    }\n    modifier naoGerente {\n        require(\n            msg.sender != gerente,\n            \"O gerente desta dApp nao pode executar esta operacao\"\n        );\n        _;\n    }\n\n    function mudarGerente(address novoGerente) public somenteGerente {\n        gerente = novoGerente;\n    }\n}\n",
  "sourcePath": "/home/fabianorodrigo/Projetos/github/solidity/linha-financiamento-dapp/contracts/Gerenciavel.sol",
  "compiler": {
    "name": "solc",
    "version": "0.5.7+commit.6da8b019.Emscripten.clang"
  },
  "schemaVersion": "3.1.0",
  "updatedAt": "2020-06-20T15:37:28.749Z",
  "devdoc": {
    "methods": {}
  },
  "userdoc": {
    "methods": {}
  }
}