{
  "contractName": "LinhaFinanciamento",
  "abi": [
    {
      "constant": false,
      "inputs": [
        {
          "name": "novoGerente",
          "type": "address"
        }
      ],
      "name": "mudarGerente",
      "outputs": [],
      "payable": false,
      "stateMutability": "nonpayable",
      "type": "function"
    },
    {
      "inputs": [
        {
          "name": "capitalLF",
          "type": "uint256"
        }
      ],
      "payable": false,
      "stateMutability": "nonpayable",
      "type": "constructor"
    },
    {
      "constant": false,
      "inputs": [
        {
          "name": "cpf",
          "type": "uint64"
        },
        {
          "name": "idade",
          "type": "uint8"
        },
        {
          "name": "microEmpreendedor",
          "type": "bool"
        },
        {
          "name": "estudante",
          "type": "bool"
        },
        {
          "name": "valor",
          "type": "uint256"
        }
      ],
      "name": "solicitar",
      "outputs": [],
      "payable": false,
      "stateMutability": "nonpayable",
      "type": "function"
    },
    {
      "constant": false,
      "inputs": [
        {
          "name": "indiceArray",
          "type": "uint256"
        },
        {
          "name": "aprovado",
          "type": "bool"
        }
      ],
      "name": "deliberar",
      "outputs": [],
      "payable": false,
      "stateMutability": "nonpayable",
      "type": "function"
    }
  ],
  "bytecode": "0x608060405234801561001057600080fd5b50604051602080610eb08339810180604052602081101561003057600080fd5b8101908080519060200190929190505050336000806101000a81548173ffffffffffffffffffffffffffffffffffffffff021916908373ffffffffffffffffffffffffffffffffffffffff1602179055508060018190555050610e18806100986000396000f3fe608060405234801561001057600080fd5b50600436106100415760003560e01c8063083699a01461004657806324717d91146100805780639488fe6e146100c4575b600080fd5b61007e6004803603604081101561005c57600080fd5b810190808035906020019092919080351515906020019092919050505061012b565b005b6100c26004803603602081101561009657600080fd5b81019080803573ffffffffffffffffffffffffffffffffffffffff16906020019092919050505061071f565b005b610129600480360360a08110156100da57600080fd5b81019080803567ffffffffffffffff169060200190929190803560ff16906020019092919080351515906020019092919080351515906020019092919080359060200190929190505050610807565b005b6000809054906101000a900473ffffffffffffffffffffffffffffffffffffffff1673ffffffffffffffffffffffffffffffffffffffff163373ffffffffffffffffffffffffffffffffffffffff16146101d0576040517f08c379a0000000000000000000000000000000000000000000000000000000008152600401808060200182810382526038815260200180610d276038913960400191505060405180910390fd5b816002805490501161022d576040517f08c379a0000000000000000000000000000000000000000000000000000000008152600401808060200182810382526029815260200180610cb46029913960400191505060405180910390fd5b600073ffffffffffffffffffffffffffffffffffffffff166002838154811061025257fe5b906000526020600020906003020160020160029054906101000a900473ffffffffffffffffffffffffffffffffffffffff1673ffffffffffffffffffffffffffffffffffffffff161480156102d557506000600283815481106102b157fe5b906000526020600020906003020160020160019054906101000a900460ff1660ff16145b61032a576040517f08c379a0000000000000000000000000000000000000000000000000000000008152600401808060200182810382526044815260200180610da96044913960600191505060405180910390fd5b610332610bf1565b6002838154811061033f57fe5b9060005260206000209060030201604051806101200160405290816000820160009054906101000a900473ffffffffffffffffffffffffffffffffffffffff1673ffffffffffffffffffffffffffffffffffffffff1673ffffffffffffffffffffffffffffffffffffffff1681526020016000820160149054906101000a900467ffffffffffffffff1667ffffffffffffffff1667ffffffffffffffff16815260200160008201601c9054906101000a900460ff1660ff1660ff16815260200160008201601d9054906101000a900460ff1615151515815260200160008201601e9054906101000a900460ff16151515158152602001600182015481526020016002820160009054906101000a900460ff161515151581526020016002820160019054906101000a900460ff1660ff1660ff1681526020016002820160029054906101000a900473ffffffffffffffffffffffffffffffffffffffff1673ffffffffffffffffffffffffffffffffffffffff1673ffffffffffffffffffffffffffffffffffffffff168152505090508115610546576000816060015180156104e8575081608001515b15610510576041826040015160ff16111561050657600f905061050b565b601490505b61052f565b6041826040015160ff161115610529576015905061052e565b601990505b5b60018260c001901515908115158152505050610558565b60008160c00190151590811515815250505b3381610100019073ffffffffffffffffffffffffffffffffffffffff16908173ffffffffffffffffffffffffffffffffffffffff1681525050806002848154811061059f57fe5b906000526020600020906003020160008201518160000160006101000a81548173ffffffffffffffffffffffffffffffffffffffff021916908373ffffffffffffffffffffffffffffffffffffffff16021790555060208201518160000160146101000a81548167ffffffffffffffff021916908367ffffffffffffffff160217905550604082015181600001601c6101000a81548160ff021916908360ff160217905550606082015181600001601d6101000a81548160ff021916908315150217905550608082015181600001601e6101000a81548160ff02191690831515021790555060a0820151816001015560c08201518160020160006101000a81548160ff02191690831515021790555060e08201518160020160016101000a81548160ff021916908360ff1602179055506101008201518160020160026101000a81548173ffffffffffffffffffffffffffffffffffffffff021916908373ffffffffffffffffffffffffffffffffffffffff160217905550905050505050565b6000809054906101000a900473ffffffffffffffffffffffffffffffffffffffff1673ffffffffffffffffffffffffffffffffffffffff163373ffffffffffffffffffffffffffffffffffffffff16146107c4576040517f08c379a0000000000000000000000000000000000000000000000000000000008152600401808060200182810382526038815260200180610d276038913960400191505060405180910390fd5b806000806101000a81548173ffffffffffffffffffffffffffffffffffffffff021916908373ffffffffffffffffffffffffffffffffffffffff16021790555050565b6000809054906101000a900473ffffffffffffffffffffffffffffffffffffffff1673ffffffffffffffffffffffffffffffffffffffff163373ffffffffffffffffffffffffffffffffffffffff1614156108ad576040517f08c379a0000000000000000000000000000000000000000000000000000000008152600401808060200182810382526034815260200180610c806034913960400191505060405180910390fd5b60008567ffffffffffffffff1611610910576040517f08c379a0000000000000000000000000000000000000000000000000000000008152600401808060200182810382526026815260200180610d5f6026913960400191505060405180910390fd5b60128460ff16101561096d576040517f08c379a0000000000000000000000000000000000000000000000000000000008152600401808060200182810382526024815260200180610d856024913960400191505060405180910390fd5b82806109765750815b6109cb576040517f08c379a000000000000000000000000000000000000000000000000000000000815260040180806020018281038252604a815260200180610cdd604a913960600191505060405180910390fd5b60026040518061012001604052803373ffffffffffffffffffffffffffffffffffffffff1681526020018767ffffffffffffffff1681526020018660ff16815260200185151581526020018415158152602001838152602001600015158152602001600060ff168152602001600073ffffffffffffffffffffffffffffffffffffffff168152509080600181540180825580915050906001820390600052602060002090600302016000909192909190915060008201518160000160006101000a81548173ffffffffffffffffffffffffffffffffffffffff021916908373ffffffffffffffffffffffffffffffffffffffff16021790555060208201518160000160146101000a81548167ffffffffffffffff021916908367ffffffffffffffff160217905550604082015181600001601c6101000a81548160ff021916908360ff160217905550606082015181600001601d6101000a81548160ff021916908315150217905550608082015181600001601e6101000a81548160ff02191690831515021790555060a0820151816001015560c08201518160020160006101000a81548160ff02191690831515021790555060e08201518160020160016101000a81548160ff021916908360ff1602179055506101008201518160020160026101000a81548173ffffffffffffffffffffffffffffffffffffffff021916908373ffffffffffffffffffffffffffffffffffffffff1602179055505050505050505050565b604051806101200160405280600073ffffffffffffffffffffffffffffffffffffffff168152602001600067ffffffffffffffff168152602001600060ff16815260200160001515815260200160001515815260200160008152602001600015158152602001600060ff168152602001600073ffffffffffffffffffffffffffffffffffffffff168152509056fe4f20676572656e74652064657374612064417070206e616f20706f64652065786563757461722065737461206f7065726163616f4120736f6c696369746163616f2064652066696e616e6369616d656e746f206e616f2065786973746545737461206c696e68612064652066696e616e6369616d656e746f2065682072657374726974612061206d6963726f656d707265656e6465646f7265732065206573747564616e746573536f6d656e7465206f20676572656e7465206465737461206441707020706f64652065786563757461722065737461206f7065726163616f4f2043504620646f2070726f706f6e656e746520646576652073657220696e666f726d61646f4f2070726f706f6e656e7465206465766520736572206d61696f722064652069646164654a616820686f7576652064656c696265726163616f20656d2072656c6163616f2061206573746120736f6c696369746163616f2064652066696e616e6369616d656e746fa165627a7a72305820b1d3e21fa7c2623333b4f77e00e6c37023b1e157f1b337dc2c609ce2a88386860029",
  "source": "pragma solidity 0.5.7;\n\nimport \"./Gerenciavel.sol\";\n\n/**\n * Linha de Financiamento é uma aplicacao descentralizada para gerenciamento\n * de um linha de credito publica ficticia utilizada para fins academicos\n *\n * Originalmente criada em: <https://github.com/fabianorodrigo/linha-financiamento-dapp>.\n */\ncontract LinhaFinanciamento is Gerenciavel {\n    struct Financiamento {\n        address origem;\n        uint64 cpf;\n        uint8 idade;\n        bool microEmpreendedor;\n        bool estudante;\n        uint256 valor;\n        bool aprovado;\n        uint8 taxa;\n        address gerente;\n    }\n\n    uint256 private capital;\n\n    constructor(uint256 capitalLF) public Gerenciavel() {\n        capital = capitalLF;\n    }\n\n    Financiamento[] private financiamentos;\n\n    function solicitar(\n        uint64 cpf,\n        uint8 idade,\n        bool microEmpreendedor,\n        bool estudante,\n        uint256 valor\n    ) public naoGerente {\n        require(cpf > 0, \"O CPF do proponente deve ser informado\");\n        require(idade >= 18, \"O proponente deve ser maior de idade\");\n        require(\n            microEmpreendedor || estudante,\n            \"Esta linha de financiamento eh restrita a microempreendedores e estudantes\"\n        );\n        financiamentos.push(\n            Financiamento(\n                msg.sender,\n                cpf,\n                idade,\n                microEmpreendedor,\n                estudante,\n                valor,\n                false,\n                0,\n                address(0)\n            )\n        );\n    }\n\n    function deliberar(uint256 indiceArray, bool aprovado)\n        public\n        somenteGerente\n    {\n        require(\n            financiamentos.length > indiceArray,\n            \"A solicitacao de financiamento nao existe\"\n        );\n        require(\n            financiamentos[indiceArray].gerente == address(0) &&\n                financiamentos[indiceArray].taxa == 0,\n            \"Jah houve deliberacao em relacao a esta solicitacao de financiamento\"\n        );\n        Financiamento memory f = financiamentos[indiceArray];\n        if (aprovado) {\n            uint8 taxa;\n            if (f.microEmpreendedor && f.estudante) {\n                if (f.idade > 65) {\n                    taxa = 15; //1,5% aa\n                } else {\n                    taxa = 20; //2,0% aa\n                }\n            } else {\n                if (f.idade > 65) {\n                    taxa = 21; //2,1% aa\n                } else {\n                    taxa = 25; //2,5% aa\n                }\n            }\n            f.aprovado = true;\n        } else {\n            f.aprovado = false;\n        }\n        f.gerente = msg.sender;\n        financiamentos[indiceArray] = f;\n    }\n}\n",
  "sourcePath": "/home/fabianorodrigo/Projetos/github/solidity/linha-financiamento-dapp/contracts/LinhaFinanciamento.sol",
  "compiler": {
    "name": "solc",
    "version": "0.5.7+commit.6da8b019.Emscripten.clang"
  },
  "schemaVersion": "3.1.0",
  "updatedAt": "2020-06-20T16:29:40.333Z",
  "devdoc": {
    "methods": {}
  },
  "userdoc": {
    "methods": {},
    "notice": "Linha de Financiamento é uma aplicacao descentralizada para gerenciamento de um linha de credito publica ficticia utilizada para fins academicos * Originalmente criada em: <https://github.com/fabianorodrigo/linha-financiamento-dapp>."
  }
}